{
	"contracts/basic.sol": {
		"SimpleStorage": {
			"abi": [
				{
					"inputs": [
						{
							"internalType": "string",
							"name": "_name",
							"type": "string"
						},
						{
							"internalType": "uint256",
							"name": "_favouriteNumber",
							"type": "uint256"
						}
					],
					"name": "addPerson",
					"outputs": [],
					"stateMutability": "nonpayable",
					"type": "function"
				},
				{
					"inputs": [
						{
							"internalType": "uint256",
							"name": "",
							"type": "uint256"
						}
					],
					"name": "map",
					"outputs": [
						{
							"internalType": "string",
							"name": "",
							"type": "string"
						}
					],
					"stateMutability": "view",
					"type": "function"
				},
				{
					"inputs": [],
					"name": "myFriend",
					"outputs": [
						{
							"internalType": "uint256",
							"name": "favouriteNumber",
							"type": "uint256"
						},
						{
							"internalType": "string",
							"name": "name",
							"type": "string"
						}
					],
					"stateMutability": "view",
					"type": "function"
				},
				{
					"inputs": [
						{
							"internalType": "uint256",
							"name": "",
							"type": "uint256"
						}
					],
					"name": "p",
					"outputs": [
						{
							"internalType": "uint256",
							"name": "favouriteNumber",
							"type": "uint256"
						},
						{
							"internalType": "string",
							"name": "name",
							"type": "string"
						}
					],
					"stateMutability": "view",
					"type": "function"
				},
				{
					"inputs": [],
					"name": "retrieve",
					"outputs": [
						{
							"internalType": "uint256",
							"name": "",
							"type": "uint256"
						}
					],
					"stateMutability": "view",
					"type": "function"
				},
				{
					"inputs": [
						{
							"internalType": "uint256",
							"name": "",
							"type": "uint256"
						}
					],
					"name": "staticp",
					"outputs": [
						{
							"internalType": "uint256",
							"name": "favouriteNumber",
							"type": "uint256"
						},
						{
							"internalType": "string",
							"name": "name",
							"type": "string"
						}
					],
					"stateMutability": "view",
					"type": "function"
				},
				{
					"inputs": [
						{
							"internalType": "uint256",
							"name": "_favouriteNumber",
							"type": "uint256"
						}
					],
					"name": "store",
					"outputs": [],
					"stateMutability": "nonpayable",
					"type": "function"
				}
			],
			"devdoc": {
				"kind": "dev",
				"methods": {},
				"version": 1
			},
			"evm": {
				"assembly": "    /* \"contracts/basic.sol\":58:1421  contract SimpleStorage{\r... */\n  mstore(0x40, 0x80)\n    /* \"contracts/basic.sol\":110:111  4 */\n  0x04\n    /* \"contracts/basic.sol\":86:111  uint256 favouriteNumber=4 */\n  0x00\n  sstore\n    /* \"contracts/basic.sol\":957:972  Person(7,\"pat\") */\n  mload(0x40)\n  dup1\n  0x40\n  add\n  0x40\n  mstore\n  dup1\n    /* \"contracts/basic.sol\":964:965  7 */\n  0x07\n    /* \"contracts/basic.sol\":957:972  Person(7,\"pat\") */\n  dup2\n  mstore\n  0x20\n  add\n  mload(0x40)\n  dup1\n  0x40\n  add\n  0x40\n  mstore\n  dup1\n  0x03\n  dup2\n  mstore\n  0x20\n  add\n  0x7061740000000000000000000000000000000000000000000000000000000000\n  dup2\n  mstore\n  pop\n  dup2\n  mstore\n  pop\n    /* \"contracts/basic.sol\":933:972  Person public myFriend =Person(7,\"pat\") */\n  0x02\n  0x00\n  dup3\n  add\n  mload\n  dup2\n  0x00\n  add\n  sstore\n  0x20\n  dup3\n  add\n  mload\n  dup2\n  0x01\n  add\n  swap1\n  dup1\n  mload\n  swap1\n  0x20\n  add\n  swap1\n  tag_1\n  swap3\n  swap2\n  swap1\n  tag_2\n  jump\t// in\ntag_1:\n  pop\n  pop\n  pop\n    /* \"contracts/basic.sol\":58:1421  contract SimpleStorage{\r... */\n  callvalue\n  dup1\n  iszero\n  tag_3\n  jumpi\n  0x00\n  dup1\n  revert\ntag_3:\n  pop\n  jump(tag_4)\ntag_2:\n  dup3\n  dup1\n  sload\n  tag_5\n  swap1\n  tag_6\n  jump\t// in\ntag_5:\n  swap1\n  0x00\n  mstore\n  keccak256(0x00, 0x20)\n  swap1\n  0x1f\n  add\n  0x20\n  swap1\n  div\n  dup2\n  add\n  swap3\n  dup3\n  tag_8\n  jumpi\n  0x00\n  dup6\n  sstore\n  jump(tag_7)\ntag_8:\n  dup3\n  0x1f\n  lt\n  tag_9\n  jumpi\n  dup1\n  mload\n  not(0xff)\n  and\n  dup4\n  dup1\n  add\n  or\n  dup6\n  sstore\n  jump(tag_7)\ntag_9:\n  dup3\n  dup1\n  add\n  0x01\n  add\n  dup6\n  sstore\n  dup3\n  iszero\n  tag_7\n  jumpi\n  swap2\n  dup3\n  add\ntag_10:\n  dup3\n  dup2\n  gt\n  iszero\n  tag_11\n  jumpi\n  dup3\n  mload\n  dup3\n  sstore\n  swap2\n  0x20\n  add\n  swap2\n  swap1\n  0x01\n  add\n  swap1\n  jump(tag_10)\ntag_11:\ntag_7:\n  pop\n  swap1\n  pop\n  tag_12\n  swap2\n  swap1\n  tag_13\n  jump\t// in\ntag_12:\n  pop\n  swap1\n  jump\t// out\ntag_13:\ntag_14:\n  dup1\n  dup3\n  gt\n  iszero\n  tag_15\n  jumpi\n  0x00\n  dup2\n  0x00\n  swap1\n  sstore\n  pop\n  0x01\n  add\n  jump(tag_14)\ntag_15:\n  pop\n  swap1\n  jump\t// out\n    /* \"#utility.yul\":7:327   */\ntag_6:\n  0x00\n    /* \"#utility.yul\":88:89   */\n  0x02\n    /* \"#utility.yul\":82:86   */\n  dup3\n    /* \"#utility.yul\":78:90   */\n  div\n    /* \"#utility.yul\":68:90   */\n  swap1\n  pop\n    /* \"#utility.yul\":135:136   */\n  0x01\n    /* \"#utility.yul\":129:133   */\n  dup3\n    /* \"#utility.yul\":125:137   */\n  and\n    /* \"#utility.yul\":156:174   */\n  dup1\n    /* \"#utility.yul\":146:148   */\n  tag_18\n  jumpi\n    /* \"#utility.yul\":212:216   */\n  0x7f\n    /* \"#utility.yul\":204:210   */\n  dup3\n    /* \"#utility.yul\":200:217   */\n  and\n    /* \"#utility.yul\":190:217   */\n  swap2\n  pop\n    /* \"#utility.yul\":146:148   */\ntag_18:\n    /* \"#utility.yul\":274:276   */\n  0x20\n    /* \"#utility.yul\":266:272   */\n  dup3\n    /* \"#utility.yul\":263:277   */\n  lt\n    /* \"#utility.yul\":243:261   */\n  dup2\n    /* \"#utility.yul\":240:278   */\n  eq\n    /* \"#utility.yul\":237:239   */\n  iszero\n  tag_19\n  jumpi\n    /* \"#utility.yul\":293:311   */\n  tag_20\n  tag_21\n  jump\t// in\ntag_20:\n    /* \"#utility.yul\":237:239   */\ntag_19:\n    /* \"#utility.yul\":58:327   */\n  pop\n  swap2\n  swap1\n  pop\n  jump\t// out\n    /* \"#utility.yul\":333:513   */\ntag_21:\n    /* \"#utility.yul\":381:458   */\n  0x4e487b7100000000000000000000000000000000000000000000000000000000\n    /* \"#utility.yul\":378:379   */\n  0x00\n    /* \"#utility.yul\":371:459   */\n  mstore\n    /* \"#utility.yul\":478:482   */\n  0x22\n    /* \"#utility.yul\":475:476   */\n  0x04\n    /* \"#utility.yul\":468:483   */\n  mstore\n    /* \"#utility.yul\":502:506   */\n  0x24\n    /* \"#utility.yul\":499:500   */\n  0x00\n    /* \"#utility.yul\":492:507   */\n  revert\n    /* \"contracts/basic.sol\":58:1421  contract SimpleStorage{\r... */\ntag_4:\n  dataSize(sub_0)\n  dup1\n  dataOffset(sub_0)\n  0x00\n  codecopy\n  0x00\n  return\nstop\n\nsub_0: assembly {\n        /* \"contracts/basic.sol\":58:1421  contract SimpleStorage{\r... */\n      mstore(0x40, 0x80)\n      callvalue\n      dup1\n      iszero\n      tag_1\n      jumpi\n      0x00\n      dup1\n      revert\n    tag_1:\n      pop\n      jumpi(tag_2, lt(calldatasize, 0x04))\n      shr(0xe0, calldataload(0x00))\n      dup1\n      0x6f760f41\n      gt\n      tag_10\n      jumpi\n      dup1\n      0x6f760f41\n      eq\n      tag_6\n      jumpi\n      dup1\n      0xa9692047\n      eq\n      tag_7\n      jumpi\n      dup1\n      0xaf16a723\n      eq\n      tag_8\n      jumpi\n      dup1\n      0xb8dda9c7\n      eq\n      tag_9\n      jumpi\n      jump(tag_2)\n    tag_10:\n      dup1\n      0x2e64cec1\n      eq\n      tag_3\n      jumpi\n      dup1\n      0x44fb5f8b\n      eq\n      tag_4\n      jumpi\n      dup1\n      0x6057361d\n      eq\n      tag_5\n      jumpi\n    tag_2:\n      0x00\n      dup1\n      revert\n        /* \"contracts/basic.sol\":343:433  function retrieve() public view returns(uint256){\r... */\n    tag_3:\n      tag_11\n      tag_12\n      jump\t// in\n    tag_11:\n      mload(0x40)\n      tag_13\n      swap2\n      swap1\n      tag_14\n      jump\t// in\n    tag_13:\n      mload(0x40)\n      dup1\n      swap2\n      sub\n      swap1\n      return\n        /* \"contracts/basic.sol\":1053:1080  Person[1000] public staticp */\n    tag_4:\n      tag_15\n      0x04\n      dup1\n      calldatasize\n      sub\n      dup2\n      add\n      swap1\n      tag_16\n      swap2\n      swap1\n      tag_17\n      jump\t// in\n    tag_16:\n      tag_18\n      jump\t// in\n    tag_15:\n      mload(0x40)\n      tag_19\n      swap3\n      swap2\n      swap1\n      tag_20\n      jump\t// in\n    tag_19:\n      mload(0x40)\n      dup1\n      swap2\n      sub\n      swap1\n      return\n        /* \"contracts/basic.sol\":181:276  function store(uint256 _favouriteNumber)public{\r... */\n    tag_5:\n      tag_21\n      0x04\n      dup1\n      calldatasize\n      sub\n      dup2\n      add\n      swap1\n      tag_22\n      swap2\n      swap1\n      tag_17\n      jump\t// in\n    tag_22:\n      tag_23\n      jump\t// in\n    tag_21:\n      stop\n        /* \"contracts/basic.sol\":1248:1398  function addPerson(string memory _name,uint _favouriteNumber)public{\r... */\n    tag_6:\n      tag_24\n      0x04\n      dup1\n      calldatasize\n      sub\n      dup2\n      add\n      swap1\n      tag_25\n      swap2\n      swap1\n      tag_26\n      jump\t// in\n    tag_25:\n      tag_27\n      jump\t// in\n    tag_24:\n      stop\n        /* \"contracts/basic.sol\":1004:1021  Person[] public p */\n    tag_7:\n      tag_28\n      0x04\n      dup1\n      calldatasize\n      sub\n      dup2\n      add\n      swap1\n      tag_29\n      swap2\n      swap1\n      tag_17\n      jump\t// in\n    tag_29:\n      tag_30\n      jump\t// in\n    tag_28:\n      mload(0x40)\n      tag_31\n      swap3\n      swap2\n      swap1\n      tag_20\n      jump\t// in\n    tag_31:\n      mload(0x40)\n      dup1\n      swap2\n      sub\n      swap1\n      return\n        /* \"contracts/basic.sol\":933:972  Person public myFriend =Person(7,\"pat\") */\n    tag_8:\n      tag_32\n      tag_33\n      jump\t// in\n    tag_32:\n      mload(0x40)\n      tag_34\n      swap3\n      swap2\n      swap1\n      tag_20\n      jump\t// in\n    tag_34:\n      mload(0x40)\n      dup1\n      swap2\n      sub\n      swap1\n      return\n        /* \"contracts/basic.sol\":1142:1174  mapping(uint=>string) public map */\n    tag_9:\n      tag_35\n      0x04\n      dup1\n      calldatasize\n      sub\n      dup2\n      add\n      swap1\n      tag_36\n      swap2\n      swap1\n      tag_17\n      jump\t// in\n    tag_36:\n      tag_37\n      jump\t// in\n    tag_35:\n      mload(0x40)\n      tag_38\n      swap2\n      swap1\n      tag_39\n      jump\t// in\n    tag_38:\n      mload(0x40)\n      dup1\n      swap2\n      sub\n      swap1\n      return\n        /* \"contracts/basic.sol\":343:433  function retrieve() public view returns(uint256){\r... */\n    tag_12:\n        /* \"contracts/basic.sol\":383:390  uint256 */\n      0x00\n        /* \"contracts/basic.sol\":409:424  favouriteNumber */\n      dup1\n      sload\n        /* \"contracts/basic.sol\":402:424  return favouriteNumber */\n      swap1\n      pop\n        /* \"contracts/basic.sol\":343:433  function retrieve() public view returns(uint256){\r... */\n      swap1\n      jump\t// out\n        /* \"contracts/basic.sol\":1053:1080  Person[1000] public staticp */\n    tag_18:\n      0x05\n      dup2\n      0x03e8\n      dup2\n      lt\n      tag_41\n      jumpi\n      0x00\n      dup1\n      revert\n    tag_41:\n      0x02\n      mul\n      add\n      0x00\n      swap2\n      pop\n      swap1\n      pop\n      dup1\n      0x00\n      add\n      sload\n      swap1\n      dup1\n      0x01\n      add\n      dup1\n      sload\n      tag_43\n      swap1\n      tag_44\n      jump\t// in\n    tag_43:\n      dup1\n      0x1f\n      add\n      0x20\n      dup1\n      swap2\n      div\n      mul\n      0x20\n      add\n      mload(0x40)\n      swap1\n      dup2\n      add\n      0x40\n      mstore\n      dup1\n      swap3\n      swap2\n      swap1\n      dup2\n      dup2\n      mstore\n      0x20\n      add\n      dup3\n      dup1\n      sload\n      tag_45\n      swap1\n      tag_44\n      jump\t// in\n    tag_45:\n      dup1\n      iszero\n      tag_46\n      jumpi\n      dup1\n      0x1f\n      lt\n      tag_47\n      jumpi\n      0x0100\n      dup1\n      dup4\n      sload\n      div\n      mul\n      dup4\n      mstore\n      swap2\n      0x20\n      add\n      swap2\n      jump(tag_46)\n    tag_47:\n      dup3\n      add\n      swap2\n      swap1\n      0x00\n      mstore\n      keccak256(0x00, 0x20)\n      swap1\n    tag_48:\n      dup2\n      sload\n      dup2\n      mstore\n      swap1\n      0x01\n      add\n      swap1\n      0x20\n      add\n      dup1\n      dup4\n      gt\n      tag_48\n      jumpi\n      dup3\n      swap1\n      sub\n      0x1f\n      and\n      dup3\n      add\n      swap2\n    tag_46:\n      pop\n      pop\n      pop\n      pop\n      pop\n      swap1\n      pop\n      dup3\n      jump\t// out\n        /* \"contracts/basic.sol\":181:276  function store(uint256 _favouriteNumber)public{\r... */\n    tag_23:\n        /* \"contracts/basic.sol\":253:269  _favouriteNumber */\n      dup1\n        /* \"contracts/basic.sol\":237:252  favouriteNumber */\n      0x00\n        /* \"contracts/basic.sol\":237:269  favouriteNumber=_favouriteNumber */\n      dup2\n      swap1\n      sstore\n      pop\n        /* \"contracts/basic.sol\":181:276  function store(uint256 _favouriteNumber)public{\r... */\n      pop\n      jump\t// out\n        /* \"contracts/basic.sol\":1248:1398  function addPerson(string memory _name,uint _favouriteNumber)public{\r... */\n    tag_27:\n        /* \"contracts/basic.sol\":1321:1322  p */\n      0x04\n        /* \"contracts/basic.sol\":1328:1358  Person(_favouriteNumber,_name) */\n      mload(0x40)\n      dup1\n      0x40\n      add\n      0x40\n      mstore\n      dup1\n        /* \"contracts/basic.sol\":1335:1351  _favouriteNumber */\n      dup4\n        /* \"contracts/basic.sol\":1328:1358  Person(_favouriteNumber,_name) */\n      dup2\n      mstore\n      0x20\n      add\n        /* \"contracts/basic.sol\":1352:1357  _name */\n      dup5\n        /* \"contracts/basic.sol\":1328:1358  Person(_favouriteNumber,_name) */\n      dup2\n      mstore\n      pop\n        /* \"contracts/basic.sol\":1321:1359  p.push(Person(_favouriteNumber,_name)) */\n      swap1\n      dup1\n      0x01\n      dup2\n      sload\n      add\n      dup1\n      dup3\n      sstore\n      dup1\n      swap2\n      pop\n      pop\n      0x01\n      swap1\n      sub\n      swap1\n      0x00\n      mstore\n      keccak256(0x00, 0x20)\n      swap1\n      0x02\n      mul\n      add\n      0x00\n      swap1\n      swap2\n      swap1\n      swap2\n      swap1\n      swap2\n      pop\n      0x00\n      dup3\n      add\n      mload\n      dup2\n      0x00\n      add\n      sstore\n      0x20\n      dup3\n      add\n      mload\n      dup2\n      0x01\n      add\n      swap1\n      dup1\n      mload\n      swap1\n      0x20\n      add\n      swap1\n      tag_52\n      swap3\n      swap2\n      swap1\n      tag_53\n      jump\t// in\n    tag_52:\n      pop\n      pop\n      pop\n        /* \"contracts/basic.sol\":1389:1394  _name */\n      dup2\n        /* \"contracts/basic.sol\":1367:1370  map */\n      0x07d5\n        /* \"contracts/basic.sol\":1367:1388  map[_favouriteNumber] */\n      0x00\n        /* \"contracts/basic.sol\":1371:1387  _favouriteNumber */\n      dup4\n        /* \"contracts/basic.sol\":1367:1388  map[_favouriteNumber] */\n      dup2\n      mstore\n      0x20\n      add\n      swap1\n      dup2\n      mstore\n      0x20\n      add\n      0x00\n      keccak256\n        /* \"contracts/basic.sol\":1367:1394  map[_favouriteNumber]=_name */\n      swap1\n      dup1\n      mload\n      swap1\n      0x20\n      add\n      swap1\n      tag_54\n      swap3\n      swap2\n      swap1\n      tag_53\n      jump\t// in\n    tag_54:\n      pop\n        /* \"contracts/basic.sol\":1248:1398  function addPerson(string memory _name,uint _favouriteNumber)public{\r... */\n      pop\n      pop\n      jump\t// out\n        /* \"contracts/basic.sol\":1004:1021  Person[] public p */\n    tag_30:\n      0x04\n      dup2\n      dup2\n      sload\n      dup2\n      lt\n      tag_55\n      jumpi\n      0x00\n      dup1\n      revert\n    tag_55:\n      swap1\n      0x00\n      mstore\n      keccak256(0x00, 0x20)\n      swap1\n      0x02\n      mul\n      add\n      0x00\n      swap2\n      pop\n      swap1\n      pop\n      dup1\n      0x00\n      add\n      sload\n      swap1\n      dup1\n      0x01\n      add\n      dup1\n      sload\n      tag_57\n      swap1\n      tag_44\n      jump\t// in\n    tag_57:\n      dup1\n      0x1f\n      add\n      0x20\n      dup1\n      swap2\n      div\n      mul\n      0x20\n      add\n      mload(0x40)\n      swap1\n      dup2\n      add\n      0x40\n      mstore\n      dup1\n      swap3\n      swap2\n      swap1\n      dup2\n      dup2\n      mstore\n      0x20\n      add\n      dup3\n      dup1\n      sload\n      tag_58\n      swap1\n      tag_44\n      jump\t// in\n    tag_58:\n      dup1\n      iszero\n      tag_59\n      jumpi\n      dup1\n      0x1f\n      lt\n      tag_60\n      jumpi\n      0x0100\n      dup1\n      dup4\n      sload\n      div\n      mul\n      dup4\n      mstore\n      swap2\n      0x20\n      add\n      swap2\n      jump(tag_59)\n    tag_60:\n      dup3\n      add\n      swap2\n      swap1\n      0x00\n      mstore\n      keccak256(0x00, 0x20)\n      swap1\n    tag_61:\n      dup2\n      sload\n      dup2\n      mstore\n      swap1\n      0x01\n      add\n      swap1\n      0x20\n      add\n      dup1\n      dup4\n      gt\n      tag_61\n      jumpi\n      dup3\n      swap1\n      sub\n      0x1f\n      and\n      dup3\n      add\n      swap2\n    tag_59:\n      pop\n      pop\n      pop\n      pop\n      pop\n      swap1\n      pop\n      dup3\n      jump\t// out\n        /* \"contracts/basic.sol\":933:972  Person public myFriend =Person(7,\"pat\") */\n    tag_33:\n      0x02\n      dup1\n      0x00\n      add\n      sload\n      swap1\n      dup1\n      0x01\n      add\n      dup1\n      sload\n      tag_62\n      swap1\n      tag_44\n      jump\t// in\n    tag_62:\n      dup1\n      0x1f\n      add\n      0x20\n      dup1\n      swap2\n      div\n      mul\n      0x20\n      add\n      mload(0x40)\n      swap1\n      dup2\n      add\n      0x40\n      mstore\n      dup1\n      swap3\n      swap2\n      swap1\n      dup2\n      dup2\n      mstore\n      0x20\n      add\n      dup3\n      dup1\n      sload\n      tag_63\n      swap1\n      tag_44\n      jump\t// in\n    tag_63:\n      dup1\n      iszero\n      tag_64\n      jumpi\n      dup1\n      0x1f\n      lt\n      tag_65\n      jumpi\n      0x0100\n      dup1\n      dup4\n      sload\n      div\n      mul\n      dup4\n      mstore\n      swap2\n      0x20\n      add\n      swap2\n      jump(tag_64)\n    tag_65:\n      dup3\n      add\n      swap2\n      swap1\n      0x00\n      mstore\n      keccak256(0x00, 0x20)\n      swap1\n    tag_66:\n      dup2\n      sload\n      dup2\n      mstore\n      swap1\n      0x01\n      add\n      swap1\n      0x20\n      add\n      dup1\n      dup4\n      gt\n      tag_66\n      jumpi\n      dup3\n      swap1\n      sub\n      0x1f\n      and\n      dup3\n      add\n      swap2\n    tag_64:\n      pop\n      pop\n      pop\n      pop\n      pop\n      swap1\n      pop\n      dup3\n      jump\t// out\n        /* \"contracts/basic.sol\":1142:1174  mapping(uint=>string) public map */\n    tag_37:\n      mstore(0x20, 0x07d5)\n      dup1\n      0x00\n      mstore\n      keccak256(0x00, 0x40)\n      0x00\n      swap2\n      pop\n      swap1\n      pop\n      dup1\n      sload\n      tag_67\n      swap1\n      tag_44\n      jump\t// in\n    tag_67:\n      dup1\n      0x1f\n      add\n      0x20\n      dup1\n      swap2\n      div\n      mul\n      0x20\n      add\n      mload(0x40)\n      swap1\n      dup2\n      add\n      0x40\n      mstore\n      dup1\n      swap3\n      swap2\n      swap1\n      dup2\n      dup2\n      mstore\n      0x20\n      add\n      dup3\n      dup1\n      sload\n      tag_68\n      swap1\n      tag_44\n      jump\t// in\n    tag_68:\n      dup1\n      iszero\n      tag_69\n      jumpi\n      dup1\n      0x1f\n      lt\n      tag_70\n      jumpi\n      0x0100\n      dup1\n      dup4\n      sload\n      div\n      mul\n      dup4\n      mstore\n      swap2\n      0x20\n      add\n      swap2\n      jump(tag_69)\n    tag_70:\n      dup3\n      add\n      swap2\n      swap1\n      0x00\n      mstore\n      keccak256(0x00, 0x20)\n      swap1\n    tag_71:\n      dup2\n      sload\n      dup2\n      mstore\n      swap1\n      0x01\n      add\n      swap1\n      0x20\n      add\n      dup1\n      dup4\n      gt\n      tag_71\n      jumpi\n      dup3\n      swap1\n      sub\n      0x1f\n      and\n      dup3\n      add\n      swap2\n    tag_69:\n      pop\n      pop\n      pop\n      pop\n      pop\n      dup2\n      jump\t// out\n    tag_53:\n      dup3\n      dup1\n      sload\n      tag_72\n      swap1\n      tag_44\n      jump\t// in\n    tag_72:\n      swap1\n      0x00\n      mstore\n      keccak256(0x00, 0x20)\n      swap1\n      0x1f\n      add\n      0x20\n      swap1\n      div\n      dup2\n      add\n      swap3\n      dup3\n      tag_74\n      jumpi\n      0x00\n      dup6\n      sstore\n      jump(tag_73)\n    tag_74:\n      dup3\n      0x1f\n      lt\n      tag_75\n      jumpi\n      dup1\n      mload\n      not(0xff)\n      and\n      dup4\n      dup1\n      add\n      or\n      dup6\n      sstore\n      jump(tag_73)\n    tag_75:\n      dup3\n      dup1\n      add\n      0x01\n      add\n      dup6\n      sstore\n      dup3\n      iszero\n      tag_73\n      jumpi\n      swap2\n      dup3\n      add\n    tag_76:\n      dup3\n      dup2\n      gt\n      iszero\n      tag_77\n      jumpi\n      dup3\n      mload\n      dup3\n      sstore\n      swap2\n      0x20\n      add\n      swap2\n      swap1\n      0x01\n      add\n      swap1\n      jump(tag_76)\n    tag_77:\n    tag_73:\n      pop\n      swap1\n      pop\n      tag_78\n      swap2\n      swap1\n      tag_79\n      jump\t// in\n    tag_78:\n      pop\n      swap1\n      jump\t// out\n    tag_79:\n    tag_80:\n      dup1\n      dup3\n      gt\n      iszero\n      tag_81\n      jumpi\n      0x00\n      dup2\n      0x00\n      swap1\n      sstore\n      pop\n      0x01\n      add\n      jump(tag_80)\n    tag_81:\n      pop\n      swap1\n      jump\t// out\n        /* \"#utility.yul\":7:351   */\n    tag_83:\n      0x00\n        /* \"#utility.yul\":110:175   */\n      tag_85\n        /* \"#utility.yul\":125:174   */\n      tag_86\n        /* \"#utility.yul\":167:173   */\n      dup5\n        /* \"#utility.yul\":125:174   */\n      tag_87\n      jump\t// in\n    tag_86:\n        /* \"#utility.yul\":110:175   */\n      tag_88\n      jump\t// in\n    tag_85:\n        /* \"#utility.yul\":101:175   */\n      swap1\n      pop\n        /* \"#utility.yul\":198:204   */\n      dup3\n        /* \"#utility.yul\":191:196   */\n      dup2\n        /* \"#utility.yul\":184:205   */\n      mstore\n        /* \"#utility.yul\":236:240   */\n      0x20\n        /* \"#utility.yul\":229:234   */\n      dup2\n        /* \"#utility.yul\":225:241   */\n      add\n        /* \"#utility.yul\":274:277   */\n      dup5\n        /* \"#utility.yul\":265:271   */\n      dup5\n        /* \"#utility.yul\":260:263   */\n      dup5\n        /* \"#utility.yul\":256:272   */\n      add\n        /* \"#utility.yul\":253:278   */\n      gt\n        /* \"#utility.yul\":250:252   */\n      iszero\n      tag_89\n      jumpi\n        /* \"#utility.yul\":291:292   */\n      0x00\n        /* \"#utility.yul\":288:289   */\n      dup1\n        /* \"#utility.yul\":281:293   */\n      revert\n        /* \"#utility.yul\":250:252   */\n    tag_89:\n        /* \"#utility.yul\":304:345   */\n      tag_90\n        /* \"#utility.yul\":338:344   */\n      dup5\n        /* \"#utility.yul\":333:336   */\n      dup3\n        /* \"#utility.yul\":328:331   */\n      dup6\n        /* \"#utility.yul\":304:345   */\n      tag_91\n      jump\t// in\n    tag_90:\n        /* \"#utility.yul\":91:351   */\n      pop\n      swap4\n      swap3\n      pop\n      pop\n      pop\n      jump\t// out\n        /* \"#utility.yul\":371:644   */\n    tag_92:\n      0x00\n        /* \"#utility.yul\":476:479   */\n      dup3\n        /* \"#utility.yul\":469:473   */\n      0x1f\n        /* \"#utility.yul\":461:467   */\n      dup4\n        /* \"#utility.yul\":457:474   */\n      add\n        /* \"#utility.yul\":453:480   */\n      slt\n        /* \"#utility.yul\":443:445   */\n      tag_94\n      jumpi\n        /* \"#utility.yul\":494:495   */\n      0x00\n        /* \"#utility.yul\":491:492   */\n      dup1\n        /* \"#utility.yul\":484:496   */\n      revert\n        /* \"#utility.yul\":443:445   */\n    tag_94:\n        /* \"#utility.yul\":534:540   */\n      dup2\n        /* \"#utility.yul\":521:541   */\n      calldataload\n        /* \"#utility.yul\":559:638   */\n      tag_95\n        /* \"#utility.yul\":634:637   */\n      dup5\n        /* \"#utility.yul\":626:632   */\n      dup3\n        /* \"#utility.yul\":619:623   */\n      0x20\n        /* \"#utility.yul\":611:617   */\n      dup7\n        /* \"#utility.yul\":607:624   */\n      add\n        /* \"#utility.yul\":559:638   */\n      tag_83\n      jump\t// in\n    tag_95:\n        /* \"#utility.yul\":550:638   */\n      swap2\n      pop\n        /* \"#utility.yul\":433:644   */\n      pop\n      swap3\n      swap2\n      pop\n      pop\n      jump\t// out\n        /* \"#utility.yul\":650:789   */\n    tag_96:\n      0x00\n        /* \"#utility.yul\":734:740   */\n      dup2\n        /* \"#utility.yul\":721:741   */\n      calldataload\n        /* \"#utility.yul\":712:741   */\n      swap1\n      pop\n        /* \"#utility.yul\":750:783   */\n      tag_98\n        /* \"#utility.yul\":777:782   */\n      dup2\n        /* \"#utility.yul\":750:783   */\n      tag_99\n      jump\t// in\n    tag_98:\n        /* \"#utility.yul\":702:789   */\n      swap3\n      swap2\n      pop\n      pop\n      jump\t// out\n        /* \"#utility.yul\":795:1315   */\n    tag_26:\n      0x00\n      dup1\n        /* \"#utility.yul\":930:932   */\n      0x40\n        /* \"#utility.yul\":918:927   */\n      dup4\n        /* \"#utility.yul\":909:916   */\n      dup6\n        /* \"#utility.yul\":905:928   */\n      sub\n        /* \"#utility.yul\":901:933   */\n      slt\n        /* \"#utility.yul\":898:900   */\n      iszero\n      tag_101\n      jumpi\n        /* \"#utility.yul\":946:947   */\n      0x00\n        /* \"#utility.yul\":943:944   */\n      dup1\n        /* \"#utility.yul\":936:948   */\n      revert\n        /* \"#utility.yul\":898:900   */\n    tag_101:\n        /* \"#utility.yul\":1017:1018   */\n      0x00\n        /* \"#utility.yul\":1006:1015   */\n      dup4\n        /* \"#utility.yul\":1002:1019   */\n      add\n        /* \"#utility.yul\":989:1020   */\n      calldataload\n        /* \"#utility.yul\":1047:1065   */\n      0xffffffffffffffff\n        /* \"#utility.yul\":1039:1045   */\n      dup2\n        /* \"#utility.yul\":1036:1066   */\n      gt\n        /* \"#utility.yul\":1033:1035   */\n      iszero\n      tag_102\n      jumpi\n        /* \"#utility.yul\":1079:1080   */\n      0x00\n        /* \"#utility.yul\":1076:1077   */\n      dup1\n        /* \"#utility.yul\":1069:1081   */\n      revert\n        /* \"#utility.yul\":1033:1035   */\n    tag_102:\n        /* \"#utility.yul\":1107:1170   */\n      tag_103\n        /* \"#utility.yul\":1162:1169   */\n      dup6\n        /* \"#utility.yul\":1153:1159   */\n      dup3\n        /* \"#utility.yul\":1142:1151   */\n      dup7\n        /* \"#utility.yul\":1138:1160   */\n      add\n        /* \"#utility.yul\":1107:1170   */\n      tag_92\n      jump\t// in\n    tag_103:\n        /* \"#utility.yul\":1097:1170   */\n      swap3\n      pop\n        /* \"#utility.yul\":960:1180   */\n      pop\n        /* \"#utility.yul\":1219:1221   */\n      0x20\n        /* \"#utility.yul\":1245:1298   */\n      tag_104\n        /* \"#utility.yul\":1290:1297   */\n      dup6\n        /* \"#utility.yul\":1281:1287   */\n      dup3\n        /* \"#utility.yul\":1270:1279   */\n      dup7\n        /* \"#utility.yul\":1266:1288   */\n      add\n        /* \"#utility.yul\":1245:1298   */\n      tag_96\n      jump\t// in\n    tag_104:\n        /* \"#utility.yul\":1235:1298   */\n      swap2\n      pop\n        /* \"#utility.yul\":1190:1308   */\n      pop\n        /* \"#utility.yul\":888:1315   */\n      swap3\n      pop\n      swap3\n      swap1\n      pop\n      jump\t// out\n        /* \"#utility.yul\":1321:1583   */\n    tag_17:\n      0x00\n        /* \"#utility.yul\":1429:1431   */\n      0x20\n        /* \"#utility.yul\":1417:1426   */\n      dup3\n        /* \"#utility.yul\":1408:1415   */\n      dup5\n        /* \"#utility.yul\":1404:1427   */\n      sub\n        /* \"#utility.yul\":1400:1432   */\n      slt\n        /* \"#utility.yul\":1397:1399   */\n      iszero\n      tag_106\n      jumpi\n        /* \"#utility.yul\":1445:1446   */\n      0x00\n        /* \"#utility.yul\":1442:1443   */\n      dup1\n        /* \"#utility.yul\":1435:1447   */\n      revert\n        /* \"#utility.yul\":1397:1399   */\n    tag_106:\n        /* \"#utility.yul\":1488:1489   */\n      0x00\n        /* \"#utility.yul\":1513:1566   */\n      tag_107\n        /* \"#utility.yul\":1558:1565   */\n      dup5\n        /* \"#utility.yul\":1549:1555   */\n      dup3\n        /* \"#utility.yul\":1538:1547   */\n      dup6\n        /* \"#utility.yul\":1534:1556   */\n      add\n        /* \"#utility.yul\":1513:1566   */\n      tag_96\n      jump\t// in\n    tag_107:\n        /* \"#utility.yul\":1503:1566   */\n      swap2\n      pop\n        /* \"#utility.yul\":1459:1576   */\n      pop\n        /* \"#utility.yul\":1387:1583   */\n      swap3\n      swap2\n      pop\n      pop\n      jump\t// out\n        /* \"#utility.yul\":1589:1953   */\n    tag_108:\n      0x00\n        /* \"#utility.yul\":1705:1744   */\n      tag_110\n        /* \"#utility.yul\":1738:1743   */\n      dup3\n        /* \"#utility.yul\":1705:1744   */\n      tag_111\n      jump\t// in\n    tag_110:\n        /* \"#utility.yul\":1760:1831   */\n      tag_112\n        /* \"#utility.yul\":1824:1830   */\n      dup2\n        /* \"#utility.yul\":1819:1822   */\n      dup6\n        /* \"#utility.yul\":1760:1831   */\n      tag_113\n      jump\t// in\n    tag_112:\n        /* \"#utility.yul\":1753:1831   */\n      swap4\n      pop\n        /* \"#utility.yul\":1840:1892   */\n      tag_114\n        /* \"#utility.yul\":1885:1891   */\n      dup2\n        /* \"#utility.yul\":1880:1883   */\n      dup6\n        /* \"#utility.yul\":1873:1877   */\n      0x20\n        /* \"#utility.yul\":1866:1871   */\n      dup7\n        /* \"#utility.yul\":1862:1878   */\n      add\n        /* \"#utility.yul\":1840:1892   */\n      tag_115\n      jump\t// in\n    tag_114:\n        /* \"#utility.yul\":1917:1946   */\n      tag_116\n        /* \"#utility.yul\":1939:1945   */\n      dup2\n        /* \"#utility.yul\":1917:1946   */\n      tag_117\n      jump\t// in\n    tag_116:\n        /* \"#utility.yul\":1912:1915   */\n      dup5\n        /* \"#utility.yul\":1908:1947   */\n      add\n        /* \"#utility.yul\":1901:1947   */\n      swap2\n      pop\n        /* \"#utility.yul\":1681:1953   */\n      pop\n      swap3\n      swap2\n      pop\n      pop\n      jump\t// out\n        /* \"#utility.yul\":1959:2077   */\n    tag_118:\n        /* \"#utility.yul\":2046:2070   */\n      tag_120\n        /* \"#utility.yul\":2064:2069   */\n      dup2\n        /* \"#utility.yul\":2046:2070   */\n      tag_121\n      jump\t// in\n    tag_120:\n        /* \"#utility.yul\":2041:2044   */\n      dup3\n        /* \"#utility.yul\":2034:2071   */\n      mstore\n        /* \"#utility.yul\":2024:2077   */\n      pop\n      pop\n      jump\t// out\n        /* \"#utility.yul\":2083:2396   */\n    tag_39:\n      0x00\n        /* \"#utility.yul\":2234:2236   */\n      0x20\n        /* \"#utility.yul\":2223:2232   */\n      dup3\n        /* \"#utility.yul\":2219:2237   */\n      add\n        /* \"#utility.yul\":2211:2237   */\n      swap1\n      pop\n        /* \"#utility.yul\":2283:2292   */\n      dup2\n        /* \"#utility.yul\":2277:2281   */\n      dup2\n        /* \"#utility.yul\":2273:2293   */\n      sub\n        /* \"#utility.yul\":2269:2270   */\n      0x00\n        /* \"#utility.yul\":2258:2267   */\n      dup4\n        /* \"#utility.yul\":2254:2271   */\n      add\n        /* \"#utility.yul\":2247:2294   */\n      mstore\n        /* \"#utility.yul\":2311:2389   */\n      tag_123\n        /* \"#utility.yul\":2384:2388   */\n      dup2\n        /* \"#utility.yul\":2375:2381   */\n      dup5\n        /* \"#utility.yul\":2311:2389   */\n      tag_108\n      jump\t// in\n    tag_123:\n        /* \"#utility.yul\":2303:2389   */\n      swap1\n      pop\n        /* \"#utility.yul\":2201:2396   */\n      swap3\n      swap2\n      pop\n      pop\n      jump\t// out\n        /* \"#utility.yul\":2402:2624   */\n    tag_14:\n      0x00\n        /* \"#utility.yul\":2533:2535   */\n      0x20\n        /* \"#utility.yul\":2522:2531   */\n      dup3\n        /* \"#utility.yul\":2518:2536   */\n      add\n        /* \"#utility.yul\":2510:2536   */\n      swap1\n      pop\n        /* \"#utility.yul\":2546:2617   */\n      tag_125\n        /* \"#utility.yul\":2614:2615   */\n      0x00\n        /* \"#utility.yul\":2603:2612   */\n      dup4\n        /* \"#utility.yul\":2599:2616   */\n      add\n        /* \"#utility.yul\":2590:2596   */\n      dup5\n        /* \"#utility.yul\":2546:2617   */\n      tag_118\n      jump\t// in\n    tag_125:\n        /* \"#utility.yul\":2500:2624   */\n      swap3\n      swap2\n      pop\n      pop\n      jump\t// out\n        /* \"#utility.yul\":2630:3053   */\n    tag_20:\n      0x00\n        /* \"#utility.yul\":2809:2811   */\n      0x40\n        /* \"#utility.yul\":2798:2807   */\n      dup3\n        /* \"#utility.yul\":2794:2812   */\n      add\n        /* \"#utility.yul\":2786:2812   */\n      swap1\n      pop\n        /* \"#utility.yul\":2822:2893   */\n      tag_127\n        /* \"#utility.yul\":2890:2891   */\n      0x00\n        /* \"#utility.yul\":2879:2888   */\n      dup4\n        /* \"#utility.yul\":2875:2892   */\n      add\n        /* \"#utility.yul\":2866:2872   */\n      dup6\n        /* \"#utility.yul\":2822:2893   */\n      tag_118\n      jump\t// in\n    tag_127:\n        /* \"#utility.yul\":2940:2949   */\n      dup2\n        /* \"#utility.yul\":2934:2938   */\n      dup2\n        /* \"#utility.yul\":2930:2950   */\n      sub\n        /* \"#utility.yul\":2925:2927   */\n      0x20\n        /* \"#utility.yul\":2914:2923   */\n      dup4\n        /* \"#utility.yul\":2910:2928   */\n      add\n        /* \"#utility.yul\":2903:2951   */\n      mstore\n        /* \"#utility.yul\":2968:3046   */\n      tag_128\n        /* \"#utility.yul\":3041:3045   */\n      dup2\n        /* \"#utility.yul\":3032:3038   */\n      dup5\n        /* \"#utility.yul\":2968:3046   */\n      tag_108\n      jump\t// in\n    tag_128:\n        /* \"#utility.yul\":2960:3046   */\n      swap1\n      pop\n        /* \"#utility.yul\":2776:3053   */\n      swap4\n      swap3\n      pop\n      pop\n      pop\n      jump\t// out\n        /* \"#utility.yul\":3059:3342   */\n    tag_88:\n      0x00\n        /* \"#utility.yul\":3125:3127   */\n      0x40\n        /* \"#utility.yul\":3119:3128   */\n      mload\n        /* \"#utility.yul\":3109:3128   */\n      swap1\n      pop\n        /* \"#utility.yul\":3167:3171   */\n      dup2\n        /* \"#utility.yul\":3159:3165   */\n      dup2\n        /* \"#utility.yul\":3155:3172   */\n      add\n        /* \"#utility.yul\":3274:3280   */\n      dup2\n        /* \"#utility.yul\":3262:3272   */\n      dup2\n        /* \"#utility.yul\":3259:3281   */\n      lt\n        /* \"#utility.yul\":3238:3256   */\n      0xffffffffffffffff\n        /* \"#utility.yul\":3226:3236   */\n      dup3\n        /* \"#utility.yul\":3223:3257   */\n      gt\n        /* \"#utility.yul\":3220:3282   */\n      or\n        /* \"#utility.yul\":3217:3219   */\n      iszero\n      tag_130\n      jumpi\n        /* \"#utility.yul\":3285:3303   */\n      tag_131\n      tag_132\n      jump\t// in\n    tag_131:\n        /* \"#utility.yul\":3217:3219   */\n    tag_130:\n        /* \"#utility.yul\":3325:3335   */\n      dup1\n        /* \"#utility.yul\":3321:3323   */\n      0x40\n        /* \"#utility.yul\":3314:3336   */\n      mstore\n        /* \"#utility.yul\":3099:3342   */\n      pop\n      swap2\n      swap1\n      pop\n      jump\t// out\n        /* \"#utility.yul\":3348:3680   */\n    tag_87:\n      0x00\n        /* \"#utility.yul\":3500:3518   */\n      0xffffffffffffffff\n        /* \"#utility.yul\":3492:3498   */\n      dup3\n        /* \"#utility.yul\":3489:3519   */\n      gt\n        /* \"#utility.yul\":3486:3488   */\n      iszero\n      tag_134\n      jumpi\n        /* \"#utility.yul\":3522:3540   */\n      tag_135\n      tag_132\n      jump\t// in\n    tag_135:\n        /* \"#utility.yul\":3486:3488   */\n    tag_134:\n        /* \"#utility.yul\":3607:3611   */\n      0x1f\n        /* \"#utility.yul\":3603:3612   */\n      not\n        /* \"#utility.yul\":3596:3600   */\n      0x1f\n        /* \"#utility.yul\":3588:3594   */\n      dup4\n        /* \"#utility.yul\":3584:3601   */\n      add\n        /* \"#utility.yul\":3580:3613   */\n      and\n        /* \"#utility.yul\":3572:3613   */\n      swap1\n      pop\n        /* \"#utility.yul\":3668:3672   */\n      0x20\n        /* \"#utility.yul\":3662:3666   */\n      dup2\n        /* \"#utility.yul\":3658:3673   */\n      add\n        /* \"#utility.yul\":3650:3673   */\n      swap1\n      pop\n        /* \"#utility.yul\":3415:3680   */\n      swap2\n      swap1\n      pop\n      jump\t// out\n        /* \"#utility.yul\":3686:3785   */\n    tag_111:\n      0x00\n        /* \"#utility.yul\":3772:3777   */\n      dup2\n        /* \"#utility.yul\":3766:3778   */\n      mload\n        /* \"#utility.yul\":3756:3778   */\n      swap1\n      pop\n        /* \"#utility.yul\":3745:3785   */\n      swap2\n      swap1\n      pop\n      jump\t// out\n        /* \"#utility.yul\":3791:3960   */\n    tag_113:\n      0x00\n        /* \"#utility.yul\":3909:3915   */\n      dup3\n        /* \"#utility.yul\":3904:3907   */\n      dup3\n        /* \"#utility.yul\":3897:3916   */\n      mstore\n        /* \"#utility.yul\":3949:3953   */\n      0x20\n        /* \"#utility.yul\":3944:3947   */\n      dup3\n        /* \"#utility.yul\":3940:3954   */\n      add\n        /* \"#utility.yul\":3925:3954   */\n      swap1\n      pop\n        /* \"#utility.yul\":3887:3960   */\n      swap3\n      swap2\n      pop\n      pop\n      jump\t// out\n        /* \"#utility.yul\":3966:4043   */\n    tag_121:\n      0x00\n        /* \"#utility.yul\":4032:4037   */\n      dup2\n        /* \"#utility.yul\":4021:4037   */\n      swap1\n      pop\n        /* \"#utility.yul\":4011:4043   */\n      swap2\n      swap1\n      pop\n      jump\t// out\n        /* \"#utility.yul\":4049:4203   */\n    tag_91:\n        /* \"#utility.yul\":4133:4139   */\n      dup3\n        /* \"#utility.yul\":4128:4131   */\n      dup2\n        /* \"#utility.yul\":4123:4126   */\n      dup4\n        /* \"#utility.yul\":4110:4140   */\n      calldatacopy\n        /* \"#utility.yul\":4195:4196   */\n      0x00\n        /* \"#utility.yul\":4186:4192   */\n      dup4\n        /* \"#utility.yul\":4181:4184   */\n      dup4\n        /* \"#utility.yul\":4177:4193   */\n      add\n        /* \"#utility.yul\":4170:4197   */\n      mstore\n        /* \"#utility.yul\":4100:4203   */\n      pop\n      pop\n      pop\n      jump\t// out\n        /* \"#utility.yul\":4209:4516   */\n    tag_115:\n        /* \"#utility.yul\":4277:4278   */\n      0x00\n        /* \"#utility.yul\":4287:4400   */\n    tag_141:\n        /* \"#utility.yul\":4301:4307   */\n      dup4\n        /* \"#utility.yul\":4298:4299   */\n      dup2\n        /* \"#utility.yul\":4295:4308   */\n      lt\n        /* \"#utility.yul\":4287:4400   */\n      iszero\n      tag_143\n      jumpi\n        /* \"#utility.yul\":4386:4387   */\n      dup1\n        /* \"#utility.yul\":4381:4384   */\n      dup3\n        /* \"#utility.yul\":4377:4388   */\n      add\n        /* \"#utility.yul\":4371:4389   */\n      mload\n        /* \"#utility.yul\":4367:4368   */\n      dup2\n        /* \"#utility.yul\":4362:4365   */\n      dup5\n        /* \"#utility.yul\":4358:4369   */\n      add\n        /* \"#utility.yul\":4351:4390   */\n      mstore\n        /* \"#utility.yul\":4323:4325   */\n      0x20\n        /* \"#utility.yul\":4320:4321   */\n      dup2\n        /* \"#utility.yul\":4316:4326   */\n      add\n        /* \"#utility.yul\":4311:4326   */\n      swap1\n      pop\n        /* \"#utility.yul\":4287:4400   */\n      jump(tag_141)\n    tag_143:\n        /* \"#utility.yul\":4418:4424   */\n      dup4\n        /* \"#utility.yul\":4415:4416   */\n      dup2\n        /* \"#utility.yul\":4412:4425   */\n      gt\n        /* \"#utility.yul\":4409:4411   */\n      iszero\n      tag_144\n      jumpi\n        /* \"#utility.yul\":4498:4499   */\n      0x00\n        /* \"#utility.yul\":4489:4495   */\n      dup5\n        /* \"#utility.yul\":4484:4487   */\n      dup5\n        /* \"#utility.yul\":4480:4496   */\n      add\n        /* \"#utility.yul\":4473:4500   */\n      mstore\n        /* \"#utility.yul\":4409:4411   */\n    tag_144:\n        /* \"#utility.yul\":4258:4516   */\n      pop\n      pop\n      pop\n      pop\n      jump\t// out\n        /* \"#utility.yul\":4522:4842   */\n    tag_44:\n      0x00\n        /* \"#utility.yul\":4603:4604   */\n      0x02\n        /* \"#utility.yul\":4597:4601   */\n      dup3\n        /* \"#utility.yul\":4593:4605   */\n      div\n        /* \"#utility.yul\":4583:4605   */\n      swap1\n      pop\n        /* \"#utility.yul\":4650:4651   */\n      0x01\n        /* \"#utility.yul\":4644:4648   */\n      dup3\n        /* \"#utility.yul\":4640:4652   */\n      and\n        /* \"#utility.yul\":4671:4689   */\n      dup1\n        /* \"#utility.yul\":4661:4663   */\n      tag_146\n      jumpi\n        /* \"#utility.yul\":4727:4731   */\n      0x7f\n        /* \"#utility.yul\":4719:4725   */\n      dup3\n        /* \"#utility.yul\":4715:4732   */\n      and\n        /* \"#utility.yul\":4705:4732   */\n      swap2\n      pop\n        /* \"#utility.yul\":4661:4663   */\n    tag_146:\n        /* \"#utility.yul\":4789:4791   */\n      0x20\n        /* \"#utility.yul\":4781:4787   */\n      dup3\n        /* \"#utility.yul\":4778:4792   */\n      lt\n        /* \"#utility.yul\":4758:4776   */\n      dup2\n        /* \"#utility.yul\":4755:4793   */\n      eq\n        /* \"#utility.yul\":4752:4754   */\n      iszero\n      tag_147\n      jumpi\n        /* \"#utility.yul\":4808:4826   */\n      tag_148\n      tag_149\n      jump\t// in\n    tag_148:\n        /* \"#utility.yul\":4752:4754   */\n    tag_147:\n        /* \"#utility.yul\":4573:4842   */\n      pop\n      swap2\n      swap1\n      pop\n      jump\t// out\n        /* \"#utility.yul\":4848:5028   */\n    tag_149:\n        /* \"#utility.yul\":4896:4973   */\n      0x4e487b7100000000000000000000000000000000000000000000000000000000\n        /* \"#utility.yul\":4893:4894   */\n      0x00\n        /* \"#utility.yul\":4886:4974   */\n      mstore\n        /* \"#utility.yul\":4993:4997   */\n      0x22\n        /* \"#utility.yul\":4990:4991   */\n      0x04\n        /* \"#utility.yul\":4983:4998   */\n      mstore\n        /* \"#utility.yul\":5017:5021   */\n      0x24\n        /* \"#utility.yul\":5014:5015   */\n      0x00\n        /* \"#utility.yul\":5007:5022   */\n      revert\n        /* \"#utility.yul\":5034:5214   */\n    tag_132:\n        /* \"#utility.yul\":5082:5159   */\n      0x4e487b7100000000000000000000000000000000000000000000000000000000\n        /* \"#utility.yul\":5079:5080   */\n      0x00\n        /* \"#utility.yul\":5072:5160   */\n      mstore\n        /* \"#utility.yul\":5179:5183   */\n      0x41\n        /* \"#utility.yul\":5176:5177   */\n      0x04\n        /* \"#utility.yul\":5169:5184   */\n      mstore\n        /* \"#utility.yul\":5203:5207   */\n      0x24\n        /* \"#utility.yul\":5200:5201   */\n      0x00\n        /* \"#utility.yul\":5193:5208   */\n      revert\n        /* \"#utility.yul\":5220:5322   */\n    tag_117:\n      0x00\n        /* \"#utility.yul\":5312:5314   */\n      0x1f\n        /* \"#utility.yul\":5308:5315   */\n      not\n        /* \"#utility.yul\":5303:5305   */\n      0x1f\n        /* \"#utility.yul\":5296:5301   */\n      dup4\n        /* \"#utility.yul\":5292:5306   */\n      add\n        /* \"#utility.yul\":5288:5316   */\n      and\n        /* \"#utility.yul\":5278:5316   */\n      swap1\n      pop\n        /* \"#utility.yul\":5268:5322   */\n      swap2\n      swap1\n      pop\n      jump\t// out\n        /* \"#utility.yul\":5328:5450   */\n    tag_99:\n        /* \"#utility.yul\":5401:5425   */\n      tag_154\n        /* \"#utility.yul\":5419:5424   */\n      dup2\n        /* \"#utility.yul\":5401:5425   */\n      tag_121\n      jump\t// in\n    tag_154:\n        /* \"#utility.yul\":5394:5399   */\n      dup2\n        /* \"#utility.yul\":5391:5426   */\n      eq\n        /* \"#utility.yul\":5381:5383   */\n      tag_155\n      jumpi\n        /* \"#utility.yul\":5440:5441   */\n      0x00\n        /* \"#utility.yul\":5437:5438   */\n      dup1\n        /* \"#utility.yul\":5430:5442   */\n      revert\n        /* \"#utility.yul\":5381:5383   */\n    tag_155:\n        /* \"#utility.yul\":5371:5450   */\n      pop\n      jump\t// out\n\n    auxdata: 0xa2646970667358221220da5c5abcc7267823470b50af810a860bb90d4734150b4d2971c2b72298441cad64736f6c63430008000033\n}\n",
				"bytecode": {
					"linkReferences": {},
					"object": "608060405260046000556040518060400160405280600781526020016040518060400160405280600381526020017f7061740000000000000000000000000000000000000000000000000000000000815250815250600260008201518160000155602082015181600101908051906020019061007c929190610091565b50505034801561008b57600080fd5b50610195565b82805461009d90610134565b90600052602060002090601f0160209004810192826100bf5760008555610106565b82601f106100d857805160ff1916838001178555610106565b82800160010185558215610106579182015b828111156101055782518255916020019190600101906100ea565b5b5090506101139190610117565b5090565b5b80821115610130576000816000905550600101610118565b5090565b6000600282049050600182168061014c57607f821691505b602082108114156101605761015f610166565b5b50919050565b7f4e487b7100000000000000000000000000000000000000000000000000000000600052602260045260246000fd5b6108e5806101a46000396000f3fe608060405234801561001057600080fd5b506004361061007d5760003560e01c80636f760f411161005b5780636f760f41146100ed578063a969204714610109578063af16a7231461013a578063b8dda9c7146101595761007d565b80632e64cec11461008257806344fb5f8b146100a05780636057361d146100d1575b600080fd5b61008a610189565b60405161009791906106e3565b60405180910390f35b6100ba60048036038101906100b59190610650565b610192565b6040516100c89291906106fe565b60405180910390f35b6100eb60048036038101906100e69190610650565b610245565b005b610107600480360381019061010291906105fc565b61024f565b005b610123600480360381019061011e9190610650565b6102e5565b6040516101319291906106fe565b60405180910390f35b6101426103a1565b6040516101509291906106fe565b60405180910390f35b610173600480360381019061016e9190610650565b61043b565b60405161018091906106c1565b60405180910390f35b60008054905090565b6005816103e881106101a357600080fd5b600202016000915090508060000154908060010180546101c2906107f7565b80601f01602080910402602001604051908101604052809291908181526020018280546101ee906107f7565b801561023b5780601f106102105761010080835404028352916020019161023b565b820191906000526020600020905b81548152906001019060200180831161021e57829003601f168201915b5050505050905082565b8060008190555050565b600460405180604001604052808381526020018481525090806001815401808255809150506001900390600052602060002090600202016000909190919091506000820151816000015560208201518160010190805190602001906102b59291906104dc565b505050816107d5600083815260200190815260200160002090805190602001906102e09291906104dc565b505050565b600481815481106102f557600080fd5b906000526020600020906002020160009150905080600001549080600101805461031e906107f7565b80601f016020809104026020016040519081016040528092919081815260200182805461034a906107f7565b80156103975780601f1061036c57610100808354040283529160200191610397565b820191906000526020600020905b81548152906001019060200180831161037a57829003601f168201915b5050505050905082565b60028060000154908060010180546103b8906107f7565b80601f01602080910402602001604051908101604052809291908181526020018280546103e4906107f7565b80156104315780601f1061040657610100808354040283529160200191610431565b820191906000526020600020905b81548152906001019060200180831161041457829003601f168201915b5050505050905082565b6107d5602052806000526040600020600091509050805461045b906107f7565b80601f0160208091040260200160405190810160405280929190818152602001828054610487906107f7565b80156104d45780601f106104a9576101008083540402835291602001916104d4565b820191906000526020600020905b8154815290600101906020018083116104b757829003601f168201915b505050505081565b8280546104e8906107f7565b90600052602060002090601f01602090048101928261050a5760008555610551565b82601f1061052357805160ff1916838001178555610551565b82800160010185558215610551579182015b82811115610550578251825591602001919060010190610535565b5b50905061055e9190610562565b5090565b5b8082111561057b576000816000905550600101610563565b5090565b600061059261058d8461075f565b61072e565b9050828152602081018484840111156105aa57600080fd5b6105b58482856107b5565b509392505050565b600082601f8301126105ce57600080fd5b81356105de84826020860161057f565b91505092915050565b6000813590506105f681610898565b92915050565b6000806040838503121561060f57600080fd5b600083013567ffffffffffffffff81111561062957600080fd5b610635858286016105bd565b9250506020610646858286016105e7565b9150509250929050565b60006020828403121561066257600080fd5b6000610670848285016105e7565b91505092915050565b60006106848261078f565b61068e818561079a565b935061069e8185602086016107c4565b6106a781610887565b840191505092915050565b6106bb816107ab565b82525050565b600060208201905081810360008301526106db8184610679565b905092915050565b60006020820190506106f860008301846106b2565b92915050565b600060408201905061071360008301856106b2565b81810360208301526107258184610679565b90509392505050565b6000604051905081810181811067ffffffffffffffff8211171561075557610754610858565b5b8060405250919050565b600067ffffffffffffffff82111561077a57610779610858565b5b601f19601f8301169050602081019050919050565b600081519050919050565b600082825260208201905092915050565b6000819050919050565b82818337600083830152505050565b60005b838110156107e25780820151818401526020810190506107c7565b838111156107f1576000848401525b50505050565b6000600282049050600182168061080f57607f821691505b6020821081141561082357610822610829565b5b50919050565b7f4e487b7100000000000000000000000000000000000000000000000000000000600052602260045260246000fd5b7f4e487b7100000000000000000000000000000000000000000000000000000000600052604160045260246000fd5b6000601f19601f8301169050919050565b6108a1816107ab565b81146108ac57600080fd5b5056fea2646970667358221220da5c5abcc7267823470b50af810a860bb90d4734150b4d2971c2b72298441cad64736f6c63430008000033",
					"opcodes": "PUSH1 0x80 PUSH1 0x40 MSTORE PUSH1 0x4 PUSH1 0x0 SSTORE PUSH1 0x40 MLOAD DUP1 PUSH1 0x40 ADD PUSH1 0x40 MSTORE DUP1 PUSH1 0x7 DUP2 MSTORE PUSH1 0x20 ADD PUSH1 0x40 MLOAD DUP1 PUSH1 0x40 ADD PUSH1 0x40 MSTORE DUP1 PUSH1 0x3 DUP2 MSTORE PUSH1 0x20 ADD PUSH32 0x7061740000000000000000000000000000000000000000000000000000000000 DUP2 MSTORE POP DUP2 MSTORE POP PUSH1 0x2 PUSH1 0x0 DUP3 ADD MLOAD DUP2 PUSH1 0x0 ADD SSTORE PUSH1 0x20 DUP3 ADD MLOAD DUP2 PUSH1 0x1 ADD SWAP1 DUP1 MLOAD SWAP1 PUSH1 0x20 ADD SWAP1 PUSH2 0x7C SWAP3 SWAP2 SWAP1 PUSH2 0x91 JUMP JUMPDEST POP POP POP CALLVALUE DUP1 ISZERO PUSH2 0x8B JUMPI PUSH1 0x0 DUP1 REVERT JUMPDEST POP PUSH2 0x195 JUMP JUMPDEST DUP3 DUP1 SLOAD PUSH2 0x9D SWAP1 PUSH2 0x134 JUMP JUMPDEST SWAP1 PUSH1 0x0 MSTORE PUSH1 0x20 PUSH1 0x0 KECCAK256 SWAP1 PUSH1 0x1F ADD PUSH1 0x20 SWAP1 DIV DUP2 ADD SWAP3 DUP3 PUSH2 0xBF JUMPI PUSH1 0x0 DUP6 SSTORE PUSH2 0x106 JUMP JUMPDEST DUP3 PUSH1 0x1F LT PUSH2 0xD8 JUMPI DUP1 MLOAD PUSH1 0xFF NOT AND DUP4 DUP1 ADD OR DUP6 SSTORE PUSH2 0x106 JUMP JUMPDEST DUP3 DUP1 ADD PUSH1 0x1 ADD DUP6 SSTORE DUP3 ISZERO PUSH2 0x106 JUMPI SWAP2 DUP3 ADD JUMPDEST DUP3 DUP2 GT ISZERO PUSH2 0x105 JUMPI DUP3 MLOAD DUP3 SSTORE SWAP2 PUSH1 0x20 ADD SWAP2 SWAP1 PUSH1 0x1 ADD SWAP1 PUSH2 0xEA JUMP JUMPDEST JUMPDEST POP SWAP1 POP PUSH2 0x113 SWAP2 SWAP1 PUSH2 0x117 JUMP JUMPDEST POP SWAP1 JUMP JUMPDEST JUMPDEST DUP1 DUP3 GT ISZERO PUSH2 0x130 JUMPI PUSH1 0x0 DUP2 PUSH1 0x0 SWAP1 SSTORE POP PUSH1 0x1 ADD PUSH2 0x118 JUMP JUMPDEST POP SWAP1 JUMP JUMPDEST PUSH1 0x0 PUSH1 0x2 DUP3 DIV SWAP1 POP PUSH1 0x1 DUP3 AND DUP1 PUSH2 0x14C JUMPI PUSH1 0x7F DUP3 AND SWAP2 POP JUMPDEST PUSH1 0x20 DUP3 LT DUP2 EQ ISZERO PUSH2 0x160 JUMPI PUSH2 0x15F PUSH2 0x166 JUMP JUMPDEST JUMPDEST POP SWAP2 SWAP1 POP JUMP JUMPDEST PUSH32 0x4E487B7100000000000000000000000000000000000000000000000000000000 PUSH1 0x0 MSTORE PUSH1 0x22 PUSH1 0x4 MSTORE PUSH1 0x24 PUSH1 0x0 REVERT JUMPDEST PUSH2 0x8E5 DUP1 PUSH2 0x1A4 PUSH1 0x0 CODECOPY PUSH1 0x0 RETURN INVALID PUSH1 0x80 PUSH1 0x40 MSTORE CALLVALUE DUP1 ISZERO PUSH2 0x10 JUMPI PUSH1 0x0 DUP1 REVERT JUMPDEST POP PUSH1 0x4 CALLDATASIZE LT PUSH2 0x7D JUMPI PUSH1 0x0 CALLDATALOAD PUSH1 0xE0 SHR DUP1 PUSH4 0x6F760F41 GT PUSH2 0x5B JUMPI DUP1 PUSH4 0x6F760F41 EQ PUSH2 0xED JUMPI DUP1 PUSH4 0xA9692047 EQ PUSH2 0x109 JUMPI DUP1 PUSH4 0xAF16A723 EQ PUSH2 0x13A JUMPI DUP1 PUSH4 0xB8DDA9C7 EQ PUSH2 0x159 JUMPI PUSH2 0x7D JUMP JUMPDEST DUP1 PUSH4 0x2E64CEC1 EQ PUSH2 0x82 JUMPI DUP1 PUSH4 0x44FB5F8B EQ PUSH2 0xA0 JUMPI DUP1 PUSH4 0x6057361D EQ PUSH2 0xD1 JUMPI JUMPDEST PUSH1 0x0 DUP1 REVERT JUMPDEST PUSH2 0x8A PUSH2 0x189 JUMP JUMPDEST PUSH1 0x40 MLOAD PUSH2 0x97 SWAP2 SWAP1 PUSH2 0x6E3 JUMP JUMPDEST PUSH1 0x40 MLOAD DUP1 SWAP2 SUB SWAP1 RETURN JUMPDEST PUSH2 0xBA PUSH1 0x4 DUP1 CALLDATASIZE SUB DUP2 ADD SWAP1 PUSH2 0xB5 SWAP2 SWAP1 PUSH2 0x650 JUMP JUMPDEST PUSH2 0x192 JUMP JUMPDEST PUSH1 0x40 MLOAD PUSH2 0xC8 SWAP3 SWAP2 SWAP1 PUSH2 0x6FE JUMP JUMPDEST PUSH1 0x40 MLOAD DUP1 SWAP2 SUB SWAP1 RETURN JUMPDEST PUSH2 0xEB PUSH1 0x4 DUP1 CALLDATASIZE SUB DUP2 ADD SWAP1 PUSH2 0xE6 SWAP2 SWAP1 PUSH2 0x650 JUMP JUMPDEST PUSH2 0x245 JUMP JUMPDEST STOP JUMPDEST PUSH2 0x107 PUSH1 0x4 DUP1 CALLDATASIZE SUB DUP2 ADD SWAP1 PUSH2 0x102 SWAP2 SWAP1 PUSH2 0x5FC JUMP JUMPDEST PUSH2 0x24F JUMP JUMPDEST STOP JUMPDEST PUSH2 0x123 PUSH1 0x4 DUP1 CALLDATASIZE SUB DUP2 ADD SWAP1 PUSH2 0x11E SWAP2 SWAP1 PUSH2 0x650 JUMP JUMPDEST PUSH2 0x2E5 JUMP JUMPDEST PUSH1 0x40 MLOAD PUSH2 0x131 SWAP3 SWAP2 SWAP1 PUSH2 0x6FE JUMP JUMPDEST PUSH1 0x40 MLOAD DUP1 SWAP2 SUB SWAP1 RETURN JUMPDEST PUSH2 0x142 PUSH2 0x3A1 JUMP JUMPDEST PUSH1 0x40 MLOAD PUSH2 0x150 SWAP3 SWAP2 SWAP1 PUSH2 0x6FE JUMP JUMPDEST PUSH1 0x40 MLOAD DUP1 SWAP2 SUB SWAP1 RETURN JUMPDEST PUSH2 0x173 PUSH1 0x4 DUP1 CALLDATASIZE SUB DUP2 ADD SWAP1 PUSH2 0x16E SWAP2 SWAP1 PUSH2 0x650 JUMP JUMPDEST PUSH2 0x43B JUMP JUMPDEST PUSH1 0x40 MLOAD PUSH2 0x180 SWAP2 SWAP1 PUSH2 0x6C1 JUMP JUMPDEST PUSH1 0x40 MLOAD DUP1 SWAP2 SUB SWAP1 RETURN JUMPDEST PUSH1 0x0 DUP1 SLOAD SWAP1 POP SWAP1 JUMP JUMPDEST PUSH1 0x5 DUP2 PUSH2 0x3E8 DUP2 LT PUSH2 0x1A3 JUMPI PUSH1 0x0 DUP1 REVERT JUMPDEST PUSH1 0x2 MUL ADD PUSH1 0x0 SWAP2 POP SWAP1 POP DUP1 PUSH1 0x0 ADD SLOAD SWAP1 DUP1 PUSH1 0x1 ADD DUP1 SLOAD PUSH2 0x1C2 SWAP1 PUSH2 0x7F7 JUMP JUMPDEST DUP1 PUSH1 0x1F ADD PUSH1 0x20 DUP1 SWAP2 DIV MUL PUSH1 0x20 ADD PUSH1 0x40 MLOAD SWAP1 DUP2 ADD PUSH1 0x40 MSTORE DUP1 SWAP3 SWAP2 SWAP1 DUP2 DUP2 MSTORE PUSH1 0x20 ADD DUP3 DUP1 SLOAD PUSH2 0x1EE SWAP1 PUSH2 0x7F7 JUMP JUMPDEST DUP1 ISZERO PUSH2 0x23B JUMPI DUP1 PUSH1 0x1F LT PUSH2 0x210 JUMPI PUSH2 0x100 DUP1 DUP4 SLOAD DIV MUL DUP4 MSTORE SWAP2 PUSH1 0x20 ADD SWAP2 PUSH2 0x23B JUMP JUMPDEST DUP3 ADD SWAP2 SWAP1 PUSH1 0x0 MSTORE PUSH1 0x20 PUSH1 0x0 KECCAK256 SWAP1 JUMPDEST DUP2 SLOAD DUP2 MSTORE SWAP1 PUSH1 0x1 ADD SWAP1 PUSH1 0x20 ADD DUP1 DUP4 GT PUSH2 0x21E JUMPI DUP3 SWAP1 SUB PUSH1 0x1F AND DUP3 ADD SWAP2 JUMPDEST POP POP POP POP POP SWAP1 POP DUP3 JUMP JUMPDEST DUP1 PUSH1 0x0 DUP2 SWAP1 SSTORE POP POP JUMP JUMPDEST PUSH1 0x4 PUSH1 0x40 MLOAD DUP1 PUSH1 0x40 ADD PUSH1 0x40 MSTORE DUP1 DUP4 DUP2 MSTORE PUSH1 0x20 ADD DUP5 DUP2 MSTORE POP SWAP1 DUP1 PUSH1 0x1 DUP2 SLOAD ADD DUP1 DUP3 SSTORE DUP1 SWAP2 POP POP PUSH1 0x1 SWAP1 SUB SWAP1 PUSH1 0x0 MSTORE PUSH1 0x20 PUSH1 0x0 KECCAK256 SWAP1 PUSH1 0x2 MUL ADD PUSH1 0x0 SWAP1 SWAP2 SWAP1 SWAP2 SWAP1 SWAP2 POP PUSH1 0x0 DUP3 ADD MLOAD DUP2 PUSH1 0x0 ADD SSTORE PUSH1 0x20 DUP3 ADD MLOAD DUP2 PUSH1 0x1 ADD SWAP1 DUP1 MLOAD SWAP1 PUSH1 0x20 ADD SWAP1 PUSH2 0x2B5 SWAP3 SWAP2 SWAP1 PUSH2 0x4DC JUMP JUMPDEST POP POP POP DUP2 PUSH2 0x7D5 PUSH1 0x0 DUP4 DUP2 MSTORE PUSH1 0x20 ADD SWAP1 DUP2 MSTORE PUSH1 0x20 ADD PUSH1 0x0 KECCAK256 SWAP1 DUP1 MLOAD SWAP1 PUSH1 0x20 ADD SWAP1 PUSH2 0x2E0 SWAP3 SWAP2 SWAP1 PUSH2 0x4DC JUMP JUMPDEST POP POP POP JUMP JUMPDEST PUSH1 0x4 DUP2 DUP2 SLOAD DUP2 LT PUSH2 0x2F5 JUMPI PUSH1 0x0 DUP1 REVERT JUMPDEST SWAP1 PUSH1 0x0 MSTORE PUSH1 0x20 PUSH1 0x0 KECCAK256 SWAP1 PUSH1 0x2 MUL ADD PUSH1 0x0 SWAP2 POP SWAP1 POP DUP1 PUSH1 0x0 ADD SLOAD SWAP1 DUP1 PUSH1 0x1 ADD DUP1 SLOAD PUSH2 0x31E SWAP1 PUSH2 0x7F7 JUMP JUMPDEST DUP1 PUSH1 0x1F ADD PUSH1 0x20 DUP1 SWAP2 DIV MUL PUSH1 0x20 ADD PUSH1 0x40 MLOAD SWAP1 DUP2 ADD PUSH1 0x40 MSTORE DUP1 SWAP3 SWAP2 SWAP1 DUP2 DUP2 MSTORE PUSH1 0x20 ADD DUP3 DUP1 SLOAD PUSH2 0x34A SWAP1 PUSH2 0x7F7 JUMP JUMPDEST DUP1 ISZERO PUSH2 0x397 JUMPI DUP1 PUSH1 0x1F LT PUSH2 0x36C JUMPI PUSH2 0x100 DUP1 DUP4 SLOAD DIV MUL DUP4 MSTORE SWAP2 PUSH1 0x20 ADD SWAP2 PUSH2 0x397 JUMP JUMPDEST DUP3 ADD SWAP2 SWAP1 PUSH1 0x0 MSTORE PUSH1 0x20 PUSH1 0x0 KECCAK256 SWAP1 JUMPDEST DUP2 SLOAD DUP2 MSTORE SWAP1 PUSH1 0x1 ADD SWAP1 PUSH1 0x20 ADD DUP1 DUP4 GT PUSH2 0x37A JUMPI DUP3 SWAP1 SUB PUSH1 0x1F AND DUP3 ADD SWAP2 JUMPDEST POP POP POP POP POP SWAP1 POP DUP3 JUMP JUMPDEST PUSH1 0x2 DUP1 PUSH1 0x0 ADD SLOAD SWAP1 DUP1 PUSH1 0x1 ADD DUP1 SLOAD PUSH2 0x3B8 SWAP1 PUSH2 0x7F7 JUMP JUMPDEST DUP1 PUSH1 0x1F ADD PUSH1 0x20 DUP1 SWAP2 DIV MUL PUSH1 0x20 ADD PUSH1 0x40 MLOAD SWAP1 DUP2 ADD PUSH1 0x40 MSTORE DUP1 SWAP3 SWAP2 SWAP1 DUP2 DUP2 MSTORE PUSH1 0x20 ADD DUP3 DUP1 SLOAD PUSH2 0x3E4 SWAP1 PUSH2 0x7F7 JUMP JUMPDEST DUP1 ISZERO PUSH2 0x431 JUMPI DUP1 PUSH1 0x1F LT PUSH2 0x406 JUMPI PUSH2 0x100 DUP1 DUP4 SLOAD DIV MUL DUP4 MSTORE SWAP2 PUSH1 0x20 ADD SWAP2 PUSH2 0x431 JUMP JUMPDEST DUP3 ADD SWAP2 SWAP1 PUSH1 0x0 MSTORE PUSH1 0x20 PUSH1 0x0 KECCAK256 SWAP1 JUMPDEST DUP2 SLOAD DUP2 MSTORE SWAP1 PUSH1 0x1 ADD SWAP1 PUSH1 0x20 ADD DUP1 DUP4 GT PUSH2 0x414 JUMPI DUP3 SWAP1 SUB PUSH1 0x1F AND DUP3 ADD SWAP2 JUMPDEST POP POP POP POP POP SWAP1 POP DUP3 JUMP JUMPDEST PUSH2 0x7D5 PUSH1 0x20 MSTORE DUP1 PUSH1 0x0 MSTORE PUSH1 0x40 PUSH1 0x0 KECCAK256 PUSH1 0x0 SWAP2 POP SWAP1 POP DUP1 SLOAD PUSH2 0x45B SWAP1 PUSH2 0x7F7 JUMP JUMPDEST DUP1 PUSH1 0x1F ADD PUSH1 0x20 DUP1 SWAP2 DIV MUL PUSH1 0x20 ADD PUSH1 0x40 MLOAD SWAP1 DUP2 ADD PUSH1 0x40 MSTORE DUP1 SWAP3 SWAP2 SWAP1 DUP2 DUP2 MSTORE PUSH1 0x20 ADD DUP3 DUP1 SLOAD PUSH2 0x487 SWAP1 PUSH2 0x7F7 JUMP JUMPDEST DUP1 ISZERO PUSH2 0x4D4 JUMPI DUP1 PUSH1 0x1F LT PUSH2 0x4A9 JUMPI PUSH2 0x100 DUP1 DUP4 SLOAD DIV MUL DUP4 MSTORE SWAP2 PUSH1 0x20 ADD SWAP2 PUSH2 0x4D4 JUMP JUMPDEST DUP3 ADD SWAP2 SWAP1 PUSH1 0x0 MSTORE PUSH1 0x20 PUSH1 0x0 KECCAK256 SWAP1 JUMPDEST DUP2 SLOAD DUP2 MSTORE SWAP1 PUSH1 0x1 ADD SWAP1 PUSH1 0x20 ADD DUP1 DUP4 GT PUSH2 0x4B7 JUMPI DUP3 SWAP1 SUB PUSH1 0x1F AND DUP3 ADD SWAP2 JUMPDEST POP POP POP POP POP DUP2 JUMP JUMPDEST DUP3 DUP1 SLOAD PUSH2 0x4E8 SWAP1 PUSH2 0x7F7 JUMP JUMPDEST SWAP1 PUSH1 0x0 MSTORE PUSH1 0x20 PUSH1 0x0 KECCAK256 SWAP1 PUSH1 0x1F ADD PUSH1 0x20 SWAP1 DIV DUP2 ADD SWAP3 DUP3 PUSH2 0x50A JUMPI PUSH1 0x0 DUP6 SSTORE PUSH2 0x551 JUMP JUMPDEST DUP3 PUSH1 0x1F LT PUSH2 0x523 JUMPI DUP1 MLOAD PUSH1 0xFF NOT AND DUP4 DUP1 ADD OR DUP6 SSTORE PUSH2 0x551 JUMP JUMPDEST DUP3 DUP1 ADD PUSH1 0x1 ADD DUP6 SSTORE DUP3 ISZERO PUSH2 0x551 JUMPI SWAP2 DUP3 ADD JUMPDEST DUP3 DUP2 GT ISZERO PUSH2 0x550 JUMPI DUP3 MLOAD DUP3 SSTORE SWAP2 PUSH1 0x20 ADD SWAP2 SWAP1 PUSH1 0x1 ADD SWAP1 PUSH2 0x535 JUMP JUMPDEST JUMPDEST POP SWAP1 POP PUSH2 0x55E SWAP2 SWAP1 PUSH2 0x562 JUMP JUMPDEST POP SWAP1 JUMP JUMPDEST JUMPDEST DUP1 DUP3 GT ISZERO PUSH2 0x57B JUMPI PUSH1 0x0 DUP2 PUSH1 0x0 SWAP1 SSTORE POP PUSH1 0x1 ADD PUSH2 0x563 JUMP JUMPDEST POP SWAP1 JUMP JUMPDEST PUSH1 0x0 PUSH2 0x592 PUSH2 0x58D DUP5 PUSH2 0x75F JUMP JUMPDEST PUSH2 0x72E JUMP JUMPDEST SWAP1 POP DUP3 DUP2 MSTORE PUSH1 0x20 DUP2 ADD DUP5 DUP5 DUP5 ADD GT ISZERO PUSH2 0x5AA JUMPI PUSH1 0x0 DUP1 REVERT JUMPDEST PUSH2 0x5B5 DUP5 DUP3 DUP6 PUSH2 0x7B5 JUMP JUMPDEST POP SWAP4 SWAP3 POP POP POP JUMP JUMPDEST PUSH1 0x0 DUP3 PUSH1 0x1F DUP4 ADD SLT PUSH2 0x5CE JUMPI PUSH1 0x0 DUP1 REVERT JUMPDEST DUP2 CALLDATALOAD PUSH2 0x5DE DUP5 DUP3 PUSH1 0x20 DUP7 ADD PUSH2 0x57F JUMP JUMPDEST SWAP2 POP POP SWAP3 SWAP2 POP POP JUMP JUMPDEST PUSH1 0x0 DUP2 CALLDATALOAD SWAP1 POP PUSH2 0x5F6 DUP2 PUSH2 0x898 JUMP JUMPDEST SWAP3 SWAP2 POP POP JUMP JUMPDEST PUSH1 0x0 DUP1 PUSH1 0x40 DUP4 DUP6 SUB SLT ISZERO PUSH2 0x60F JUMPI PUSH1 0x0 DUP1 REVERT JUMPDEST PUSH1 0x0 DUP4 ADD CALLDATALOAD PUSH8 0xFFFFFFFFFFFFFFFF DUP2 GT ISZERO PUSH2 0x629 JUMPI PUSH1 0x0 DUP1 REVERT JUMPDEST PUSH2 0x635 DUP6 DUP3 DUP7 ADD PUSH2 0x5BD JUMP JUMPDEST SWAP3 POP POP PUSH1 0x20 PUSH2 0x646 DUP6 DUP3 DUP7 ADD PUSH2 0x5E7 JUMP JUMPDEST SWAP2 POP POP SWAP3 POP SWAP3 SWAP1 POP JUMP JUMPDEST PUSH1 0x0 PUSH1 0x20 DUP3 DUP5 SUB SLT ISZERO PUSH2 0x662 JUMPI PUSH1 0x0 DUP1 REVERT JUMPDEST PUSH1 0x0 PUSH2 0x670 DUP5 DUP3 DUP6 ADD PUSH2 0x5E7 JUMP JUMPDEST SWAP2 POP POP SWAP3 SWAP2 POP POP JUMP JUMPDEST PUSH1 0x0 PUSH2 0x684 DUP3 PUSH2 0x78F JUMP JUMPDEST PUSH2 0x68E DUP2 DUP6 PUSH2 0x79A JUMP JUMPDEST SWAP4 POP PUSH2 0x69E DUP2 DUP6 PUSH1 0x20 DUP7 ADD PUSH2 0x7C4 JUMP JUMPDEST PUSH2 0x6A7 DUP2 PUSH2 0x887 JUMP JUMPDEST DUP5 ADD SWAP2 POP POP SWAP3 SWAP2 POP POP JUMP JUMPDEST PUSH2 0x6BB DUP2 PUSH2 0x7AB JUMP JUMPDEST DUP3 MSTORE POP POP JUMP JUMPDEST PUSH1 0x0 PUSH1 0x20 DUP3 ADD SWAP1 POP DUP2 DUP2 SUB PUSH1 0x0 DUP4 ADD MSTORE PUSH2 0x6DB DUP2 DUP5 PUSH2 0x679 JUMP JUMPDEST SWAP1 POP SWAP3 SWAP2 POP POP JUMP JUMPDEST PUSH1 0x0 PUSH1 0x20 DUP3 ADD SWAP1 POP PUSH2 0x6F8 PUSH1 0x0 DUP4 ADD DUP5 PUSH2 0x6B2 JUMP JUMPDEST SWAP3 SWAP2 POP POP JUMP JUMPDEST PUSH1 0x0 PUSH1 0x40 DUP3 ADD SWAP1 POP PUSH2 0x713 PUSH1 0x0 DUP4 ADD DUP6 PUSH2 0x6B2 JUMP JUMPDEST DUP2 DUP2 SUB PUSH1 0x20 DUP4 ADD MSTORE PUSH2 0x725 DUP2 DUP5 PUSH2 0x679 JUMP JUMPDEST SWAP1 POP SWAP4 SWAP3 POP POP POP JUMP JUMPDEST PUSH1 0x0 PUSH1 0x40 MLOAD SWAP1 POP DUP2 DUP2 ADD DUP2 DUP2 LT PUSH8 0xFFFFFFFFFFFFFFFF DUP3 GT OR ISZERO PUSH2 0x755 JUMPI PUSH2 0x754 PUSH2 0x858 JUMP JUMPDEST JUMPDEST DUP1 PUSH1 0x40 MSTORE POP SWAP2 SWAP1 POP JUMP JUMPDEST PUSH1 0x0 PUSH8 0xFFFFFFFFFFFFFFFF DUP3 GT ISZERO PUSH2 0x77A JUMPI PUSH2 0x779 PUSH2 0x858 JUMP JUMPDEST JUMPDEST PUSH1 0x1F NOT PUSH1 0x1F DUP4 ADD AND SWAP1 POP PUSH1 0x20 DUP2 ADD SWAP1 POP SWAP2 SWAP1 POP JUMP JUMPDEST PUSH1 0x0 DUP2 MLOAD SWAP1 POP SWAP2 SWAP1 POP JUMP JUMPDEST PUSH1 0x0 DUP3 DUP3 MSTORE PUSH1 0x20 DUP3 ADD SWAP1 POP SWAP3 SWAP2 POP POP JUMP JUMPDEST PUSH1 0x0 DUP2 SWAP1 POP SWAP2 SWAP1 POP JUMP JUMPDEST DUP3 DUP2 DUP4 CALLDATACOPY PUSH1 0x0 DUP4 DUP4 ADD MSTORE POP POP POP JUMP JUMPDEST PUSH1 0x0 JUMPDEST DUP4 DUP2 LT ISZERO PUSH2 0x7E2 JUMPI DUP1 DUP3 ADD MLOAD DUP2 DUP5 ADD MSTORE PUSH1 0x20 DUP2 ADD SWAP1 POP PUSH2 0x7C7 JUMP JUMPDEST DUP4 DUP2 GT ISZERO PUSH2 0x7F1 JUMPI PUSH1 0x0 DUP5 DUP5 ADD MSTORE JUMPDEST POP POP POP POP JUMP JUMPDEST PUSH1 0x0 PUSH1 0x2 DUP3 DIV SWAP1 POP PUSH1 0x1 DUP3 AND DUP1 PUSH2 0x80F JUMPI PUSH1 0x7F DUP3 AND SWAP2 POP JUMPDEST PUSH1 0x20 DUP3 LT DUP2 EQ ISZERO PUSH2 0x823 JUMPI PUSH2 0x822 PUSH2 0x829 JUMP JUMPDEST JUMPDEST POP SWAP2 SWAP1 POP JUMP JUMPDEST PUSH32 0x4E487B7100000000000000000000000000000000000000000000000000000000 PUSH1 0x0 MSTORE PUSH1 0x22 PUSH1 0x4 MSTORE PUSH1 0x24 PUSH1 0x0 REVERT JUMPDEST PUSH32 0x4E487B7100000000000000000000000000000000000000000000000000000000 PUSH1 0x0 MSTORE PUSH1 0x41 PUSH1 0x4 MSTORE PUSH1 0x24 PUSH1 0x0 REVERT JUMPDEST PUSH1 0x0 PUSH1 0x1F NOT PUSH1 0x1F DUP4 ADD AND SWAP1 POP SWAP2 SWAP1 POP JUMP JUMPDEST PUSH2 0x8A1 DUP2 PUSH2 0x7AB JUMP JUMPDEST DUP2 EQ PUSH2 0x8AC JUMPI PUSH1 0x0 DUP1 REVERT JUMPDEST POP JUMP INVALID LOG2 PUSH5 0x6970667358 0x22 SLT KECCAK256 0xDA 0x5C GAS 0xBC 0xC7 0x26 PUSH25 0x23470B50AF810A860BB90D4734150B4D2971C2B72298441CAD PUSH5 0x736F6C6343 STOP ADDMOD STOP STOP CALLER "
				},
				"gasEstimates": {
					"creation": {
						"codeDepositCost": "455400",
						"executionCost": "infinite",
						"totalCost": "infinite"
					},
					"external": {
						"addPerson(string,uint256)": "infinite",
						"map(uint256)": "infinite",
						"myFriend()": "infinite",
						"p(uint256)": "infinite",
						"retrieve()": "1138",
						"staticp(uint256)": "infinite",
						"store(uint256)": "20465"
					}
				},
				"methodIdentifiers": {
					"addPerson(string,uint256)": "6f760f41",
					"map(uint256)": "b8dda9c7",
					"myFriend()": "af16a723",
					"p(uint256)": "a9692047",
					"retrieve()": "2e64cec1",
					"staticp(uint256)": "44fb5f8b",
					"store(uint256)": "6057361d"
				}
			},
			"storageLayout": {
				"storage": [
					{
						"astId": 4,
						"contract": "contracts/basic.sol:SimpleStorage",
						"label": "favouriteNumber",
						"offset": 0,
						"slot": "0",
						"type": "t_uint256"
					},
					{
						"astId": 17,
						"contract": "contracts/basic.sol:SimpleStorage",
						"label": "listOfFavouriteNumber",
						"offset": 0,
						"slot": "1",
						"type": "t_array(t_uint256)dyn_storage"
					},
					{
						"astId": 37,
						"contract": "contracts/basic.sol:SimpleStorage",
						"label": "myFriend",
						"offset": 0,
						"slot": "2",
						"type": "t_struct(Person)30_storage"
					},
					{
						"astId": 41,
						"contract": "contracts/basic.sol:SimpleStorage",
						"label": "p",
						"offset": 0,
						"slot": "4",
						"type": "t_array(t_struct(Person)30_storage)dyn_storage"
					},
					{
						"astId": 46,
						"contract": "contracts/basic.sol:SimpleStorage",
						"label": "staticp",
						"offset": 0,
						"slot": "5",
						"type": "t_array(t_struct(Person)30_storage)1000_storage"
					},
					{
						"astId": 50,
						"contract": "contracts/basic.sol:SimpleStorage",
						"label": "map",
						"offset": 0,
						"slot": "2005",
						"type": "t_mapping(t_uint256,t_string_storage)"
					}
				],
				"types": {
					"t_array(t_struct(Person)30_storage)1000_storage": {
						"base": "t_struct(Person)30_storage",
						"encoding": "inplace",
						"label": "struct SimpleStorage.Person[1000]",
						"numberOfBytes": "64000"
					},
					"t_array(t_struct(Person)30_storage)dyn_storage": {
						"base": "t_struct(Person)30_storage",
						"encoding": "dynamic_array",
						"label": "struct SimpleStorage.Person[]",
						"numberOfBytes": "32"
					},
					"t_array(t_uint256)dyn_storage": {
						"base": "t_uint256",
						"encoding": "dynamic_array",
						"label": "uint256[]",
						"numberOfBytes": "32"
					},
					"t_mapping(t_uint256,t_string_storage)": {
						"encoding": "mapping",
						"key": "t_uint256",
						"label": "mapping(uint256 => string)",
						"numberOfBytes": "32",
						"value": "t_string_storage"
					},
					"t_string_storage": {
						"encoding": "bytes",
						"label": "string",
						"numberOfBytes": "32"
					},
					"t_struct(Person)30_storage": {
						"encoding": "inplace",
						"label": "struct SimpleStorage.Person",
						"members": [
							{
								"astId": 27,
								"contract": "contracts/basic.sol:SimpleStorage",
								"label": "favouriteNumber",
								"offset": 0,
								"slot": "0",
								"type": "t_uint256"
							},
							{
								"astId": 29,
								"contract": "contracts/basic.sol:SimpleStorage",
								"label": "name",
								"offset": 0,
								"slot": "1",
								"type": "t_string_storage"
							}
						],
						"numberOfBytes": "64"
					},
					"t_uint256": {
						"encoding": "inplace",
						"label": "uint256",
						"numberOfBytes": "32"
					}
				}
			},
			"userdoc": {
				"kind": "user",
				"methods": {},
				"version": 1
			}
		}
	}
}